{
  "_format": "hh-sol-artifact-1",
  "contractName": "Transactions",
  "sourceName": "contracts/Transactions.sol",
  "abi": [
    {
      "anonymous": false,
      "inputs": [
        {
          "indexed": false,
          "internalType": "address",
          "name": "from",
          "type": "address"
        },
        {
          "indexed": false,
          "internalType": "address",
          "name": "receiver",
          "type": "address"
        },
        {
          "indexed": false,
          "internalType": "uint256",
          "name": "amount",
          "type": "uint256"
        },
        {
          "indexed": false,
          "internalType": "string",
          "name": "message",
          "type": "string"
        },
        {
          "indexed": false,
          "internalType": "uint256",
          "name": "timestamp",
          "type": "uint256"
        }
      ],
      "name": "Transfer",
      "type": "event"
    },
    {
      "inputs": [],
      "name": "addFunds",
      "outputs": [],
      "stateMutability": "payable",
      "type": "function"
    },
    {
      "inputs": [
        {
          "internalType": "address payable",
          "name": "receiver",
          "type": "address"
        },
        {
          "internalType": "uint256",
          "name": "amount",
          "type": "uint256"
        },
        {
          "internalType": "string",
          "name": "message",
          "type": "string"
        }
      ],
      "name": "addToBlockchain",
      "outputs": [],
      "stateMutability": "nonpayable",
      "type": "function"
    },
    {
      "inputs": [],
      "name": "getAllFunders",
      "outputs": [
        {
          "internalType": "address[]",
          "name": "",
          "type": "address[]"
        }
      ],
      "stateMutability": "view",
      "type": "function"
    },
    {
      "inputs": [],
      "name": "getAllTransactions",
      "outputs": [
        {
          "components": [
            {
              "internalType": "address",
              "name": "sender",
              "type": "address"
            },
            {
              "internalType": "address",
              "name": "receiver",
              "type": "address"
            },
            {
              "internalType": "uint256",
              "name": "amount",
              "type": "uint256"
            },
            {
              "internalType": "string",
              "name": "message",
              "type": "string"
            },
            {
              "internalType": "uint256",
              "name": "timestamp",
              "type": "uint256"
            }
          ],
          "internalType": "struct Transactions.TransferStruct[]",
          "name": "",
          "type": "tuple[]"
        }
      ],
      "stateMutability": "view",
      "type": "function"
    },
    {
      "inputs": [
        {
          "internalType": "uint8",
          "name": "index",
          "type": "uint8"
        }
      ],
      "name": "getFunderAtIndex",
      "outputs": [
        {
          "internalType": "address",
          "name": "",
          "type": "address"
        }
      ],
      "stateMutability": "view",
      "type": "function"
    },
    {
      "inputs": [],
      "name": "getTransactionCount",
      "outputs": [
        {
          "internalType": "uint256",
          "name": "",
          "type": "uint256"
        }
      ],
      "stateMutability": "view",
      "type": "function"
    },
    {
      "inputs": [],
      "name": "numOfFunders",
      "outputs": [
        {
          "internalType": "uint256",
          "name": "",
          "type": "uint256"
        }
      ],
      "stateMutability": "view",
      "type": "function"
    },
    {
      "inputs": [
        {
          "internalType": "uint256",
          "name": "withdrawAmount",
          "type": "uint256"
        }
      ],
      "name": "withdraw",
      "outputs": [],
      "stateMutability": "nonpayable",
      "type": "function"
    },
    {
      "stateMutability": "payable",
      "type": "receive"
    }
  ],
  "bytecode": "0x608060405234801561001057600080fd5b506111b5806100206000396000f3fe60806040526004361061007f5760003560e01c80636fbbb55d1161004e5780636fbbb55d14610147578063a26759cb14610172578063af7f2c9b1461017c578063eb12da4a146101a757610086565b80630a93cf331461008b57806327506f53146100c85780632e1a7d4d146100f35780632e7700f01461011c57610086565b3661008657005b600080fd5b34801561009757600080fd5b506100b260048036038101906100ad9190610a43565b6101d0565b6040516100bf9190610d04565b60405180910390f35b3480156100d457600080fd5b506100dd610210565b6040516100ea9190610d9b565b60405180910390f35b3480156100ff57600080fd5b5061011a60048036038101906101159190610a1a565b6103c1565b005b34801561012857600080fd5b50610131610458565b60405161013e9190610ddd565b60405180910390f35b34801561015357600080fd5b5061015c610461565b6040516101699190610d79565b60405180910390f35b61017a6105a7565b005b34801561018857600080fd5b506101916106c7565b60405161019e9190610ddd565b60405180910390f35b3480156101b357600080fd5b506101ce60048036038101906101c991906109b3565b6106cd565b005b6000600460008360ff16815260200190815260200160002060009054906101000a900473ffffffffffffffffffffffffffffffffffffffff169050919050565b60606001805480602002602001604051908101604052809291908181526020016000905b828210156103b857838290600052602060002090600502016040518060a00160405290816000820160009054906101000a900473ffffffffffffffffffffffffffffffffffffffff1673ffffffffffffffffffffffffffffffffffffffff1673ffffffffffffffffffffffffffffffffffffffff1681526020016001820160009054906101000a900473ffffffffffffffffffffffffffffffffffffffff1673ffffffffffffffffffffffffffffffffffffffff1673ffffffffffffffffffffffffffffffffffffffff1681526020016002820154815260200160038201805461031d90611021565b80601f016020809104026020016040519081016040528092919081815260200182805461034990611021565b80156103965780601f1061036b57610100808354040283529160200191610396565b820191906000526020600020905b81548152906001019060200180831161037957829003601f168201915b5050505050815260200160048201548152505081526020019060010190610234565b50505050905090565b8067016345785d8a000081111561040d576040517f08c379a000000000000000000000000000000000000000000000000000000000815260040161040490610dbd565b60405180910390fd5b3373ffffffffffffffffffffffffffffffffffffffff166108fc839081150290604051600060405180830381858888f19350505050158015610453573d6000803e3d6000fd5b505050565b60008054905090565b6060600060025467ffffffffffffffff8111156104a7577f4e487b7100000000000000000000000000000000000000000000000000000000600052604160045260246000fd5b6040519080825280602002602001820160405280156104d55781602001602082028036833780820191505090505b50905060005b60025481101561059f576004600082815260200190815260200160002060009054906101000a900473ffffffffffffffffffffffffffffffffffffffff16828281518110610552577f4e487b7100000000000000000000000000000000000000000000000000000000600052603260045260246000fd5b602002602001019073ffffffffffffffffffffffffffffffffffffffff16908173ffffffffffffffffffffffffffffffffffffffff1681525050808061059790611053565b9150506104db565b508091505090565b6000339050600360008273ffffffffffffffffffffffffffffffffffffffff1673ffffffffffffffffffffffffffffffffffffffff16815260200190815260200160002060009054906101000a900460ff166106c45760006002600081548092919061061290611053565b9190505590506001600360008473ffffffffffffffffffffffffffffffffffffffff1673ffffffffffffffffffffffffffffffffffffffff16815260200190815260200160002060006101000a81548160ff021916908315150217905550816004600083815260200190815260200160002060006101000a81548173ffffffffffffffffffffffffffffffffffffffff021916908373ffffffffffffffffffffffffffffffffffffffff160217905550505b50565b60025481565b60016000808282546106df9190610ef8565b9250508190555060016040518060a001604052803373ffffffffffffffffffffffffffffffffffffffff1681526020018573ffffffffffffffffffffffffffffffffffffffff16815260200184815260200183815260200142815250908060018154018082558091505060019003906000526020600020906005020160009091909190915060008201518160000160006101000a81548173ffffffffffffffffffffffffffffffffffffffff021916908373ffffffffffffffffffffffffffffffffffffffff16021790555060208201518160010160006101000a81548173ffffffffffffffffffffffffffffffffffffffff021916908373ffffffffffffffffffffffffffffffffffffffff160217905550604082015181600201556060820151816003019080519060200190610818929190610869565b506080820151816004015550507fc4b32d7ff75a51e487f3cbb5d3202f2efecca1f4c2b987e0039c1d3220b48a83338484844260405161085c959493929190610d1f565b60405180910390a1505050565b82805461087590611021565b90600052602060002090601f01602090048101928261089757600085556108de565b82601f106108b057805160ff19168380011785556108de565b828001600101855582156108de579182015b828111156108dd5782518255916020019190600101906108c2565b5b5090506108eb91906108ef565b5090565b5b808211156109085760008160009055506001016108f0565b5090565b600061091f61091a84610e29565b610df8565b90508281526020810184848401111561093757600080fd5b610942848285610fdf565b509392505050565b6000813590506109598161113a565b92915050565b600082601f83011261097057600080fd5b813561098084826020860161090c565b91505092915050565b60008135905061099881611151565b92915050565b6000813590506109ad81611168565b92915050565b6000806000606084860312156109c857600080fd5b60006109d68682870161094a565b93505060206109e786828701610989565b925050604084013567ffffffffffffffff811115610a0457600080fd5b610a108682870161095f565b9150509250925092565b600060208284031215610a2c57600080fd5b6000610a3a84828501610989565b91505092915050565b600060208284031215610a5557600080fd5b6000610a638482850161099e565b91505092915050565b6000610a788383610aa7565b60208301905092915050565b6000610a908383610c70565b905092915050565b610aa181610fa9565b82525050565b610ab081610f4e565b82525050565b610abf81610f4e565b82525050565b6000610ad082610e79565b610ada8185610eb4565b9350610ae583610e59565b8060005b83811015610b16578151610afd8882610a6c565b9750610b0883610e9a565b925050600181019050610ae9565b5085935050505092915050565b6000610b2e82610e84565b610b388185610ec5565b935083602082028501610b4a85610e69565b8060005b85811015610b865784840389528151610b678582610a84565b9450610b7283610ea7565b925060208a01995050600181019050610b4e565b50829750879550505050505092915050565b6000610ba382610e8f565b610bad8185610ed6565b9350610bbd818560208601610fee565b610bc681611129565b840191505092915050565b6000610bdc82610e8f565b610be68185610ee7565b9350610bf6818560208601610fee565b610bff81611129565b840191505092915050565b6000610c17602383610ee7565b91507f43616e6e6f74207769746864726177206d6f7265207468616e20302e3120657460008301527f68657200000000000000000000000000000000000000000000000000000000006020830152604082019050919050565b600060a083016000830151610c886000860182610aa7565b506020830151610c9b6020860182610aa7565b506040830151610cae6040860182610ce6565b5060608301518482036060860152610cc68282610b98565b9150506080830151610cdb6080860182610ce6565b508091505092915050565b610cef81610f92565b82525050565b610cfe81610f92565b82525050565b6000602082019050610d196000830184610ab6565b92915050565b600060a082019050610d346000830188610ab6565b610d416020830187610a98565b610d4e6040830186610cf5565b8181036060830152610d608185610bd1565b9050610d6f6080830184610cf5565b9695505050505050565b60006020820190508181036000830152610d938184610ac5565b905092915050565b60006020820190508181036000830152610db58184610b23565b905092915050565b60006020820190508181036000830152610dd681610c0a565b9050919050565b6000602082019050610df26000830184610cf5565b92915050565b6000604051905081810181811067ffffffffffffffff82111715610e1f57610e1e6110fa565b5b8060405250919050565b600067ffffffffffffffff821115610e4457610e436110fa565b5b601f19601f8301169050602081019050919050565b6000819050602082019050919050565b6000819050602082019050919050565b600081519050919050565b600081519050919050565b600081519050919050565b6000602082019050919050565b6000602082019050919050565b600082825260208201905092915050565b600082825260208201905092915050565b600082825260208201905092915050565b600082825260208201905092915050565b6000610f0382610f92565b9150610f0e83610f92565b9250827fffffffffffffffffffffffffffffffffffffffffffffffffffffffffffffffff03821115610f4357610f4261109c565b5b828201905092915050565b6000610f5982610f72565b9050919050565b6000610f6b82610f72565b9050919050565b600073ffffffffffffffffffffffffffffffffffffffff82169050919050565b6000819050919050565b600060ff82169050919050565b6000610fb482610fbb565b9050919050565b6000610fc682610fcd565b9050919050565b6000610fd882610f72565b9050919050565b82818337600083830152505050565b60005b8381101561100c578082015181840152602081019050610ff1565b8381111561101b576000848401525b50505050565b6000600282049050600182168061103957607f821691505b6020821081141561104d5761104c6110cb565b5b50919050565b600061105e82610f92565b91507fffffffffffffffffffffffffffffffffffffffffffffffffffffffffffffffff8214156110915761109061109c565b5b600182019050919050565b7f4e487b7100000000000000000000000000000000000000000000000000000000600052601160045260246000fd5b7f4e487b7100000000000000000000000000000000000000000000000000000000600052602260045260246000fd5b7f4e487b7100000000000000000000000000000000000000000000000000000000600052604160045260246000fd5b6000601f19601f8301169050919050565b61114381610f60565b811461114e57600080fd5b50565b61115a81610f92565b811461116557600080fd5b50565b61117181610f9c565b811461117c57600080fd5b5056fea2646970667358221220039b319e7d4e58397d28aa8f456253de542e1a86f9b08a172a880773dab34e6564736f6c63430008000033",
  "linkReferences": {},
  "deployedLinkReferences": {}
}